{
  "_format": "hh-sol-artifact-1",
  "contractName": "Whitelist",
  "sourceName": "contracts/Whitelist.sol",
  "abi": [
    {
      "inputs": [
        {
          "internalType": "uint256",
          "name": "maxAddresses",
          "type": "uint256"
        }
      ],
      "stateMutability": "nonpayable",
      "type": "constructor"
    },
    {
      "inputs": [],
      "name": "MAX_ADDRESSES",
      "outputs": [
        {
          "internalType": "uint256",
          "name": "",
          "type": "uint256"
        }
      ],
      "stateMutability": "view",
      "type": "function"
    },
    {
      "inputs": [],
      "name": "addToWhitelisted",
      "outputs": [],
      "stateMutability": "nonpayable",
      "type": "function"
    },
    {
      "inputs": [],
      "name": "totalWhitelisted",
      "outputs": [
        {
          "internalType": "uint256",
          "name": "",
          "type": "uint256"
        }
      ],
      "stateMutability": "view",
      "type": "function"
    },
    {
      "inputs": [
        {
          "internalType": "address",
          "name": "",
          "type": "address"
        }
      ],
      "name": "whitelistedAddresses",
      "outputs": [
        {
          "internalType": "bool",
          "name": "",
          "type": "bool"
        }
      ],
      "stateMutability": "view",
      "type": "function"
    }
  ],
  "bytecode": "0x60a06040526000805534801561001457600080fd5b506040516105e43803806105e483398181016040528101906100369190610059565b8060808181525050506100a3565b6000815190506100538161008c565b92915050565b60006020828403121561006b57600080fd5b600061007984828501610044565b91505092915050565b6000819050919050565b61009581610082565b81146100a057600080fd5b50565b6080516105206100c46000396000818160ef015261025001526105206000f3fe608060405234801561001057600080fd5b506004361061004c5760003560e01c806304072b201461005157806306c933d81461006f57806323e4ff381461009f578063634da787146100a9575b600080fd5b6100596100c7565b604051610066919061036f565b60405180910390f35b61008960048036038101906100849190610287565b6100cd565b6040516100969190610314565b60405180910390f35b6100a76100ed565b005b6100b161024e565b6040516100be919061036f565b60405180910390f35b60005481565b60016020528060005260406000206000915054906101000a900460ff1681565b7f000000000000000000000000000000000000000000000000000000000000000060005410610151576040517f08c379a00000000000000000000000000000000000000000000000000000000081526004016101489061034f565b60405180910390fd5b600160003373ffffffffffffffffffffffffffffffffffffffff1673ffffffffffffffffffffffffffffffffffffffff16815260200190815260200160002060009054906101000a900460ff16156101de576040517f08c379a00000000000000000000000000000000000000000000000000000000081526004016101d59061032f565b60405180910390fd5b60018060003373ffffffffffffffffffffffffffffffffffffffff1673ffffffffffffffffffffffffffffffffffffffff16815260200190815260200160002060006101000a81548160ff021916908315150217905550600080815480929190610247906103e3565b9190505550565b7f000000000000000000000000000000000000000000000000000000000000000081565b600081359050610281816104d3565b92915050565b60006020828403121561029957600080fd5b60006102a784828501610272565b91505092915050565b6102b9816103ad565b82525050565b60006102cc601b8361038a565b91506102d78261045b565b602082019050919050565b60006102ef60358361038a565b91506102fa82610484565b604082019050919050565b61030e816103d9565b82525050565b600060208201905061032960008301846102b0565b92915050565b60006020820190508181036000830152610348816102bf565b9050919050565b60006020820190508181036000830152610368816102e2565b9050919050565b60006020820190506103846000830184610305565b92915050565b600082825260208201905092915050565b60006103a6826103b9565b9050919050565b60008115159050919050565b600073ffffffffffffffffffffffffffffffffffffffff82169050919050565b6000819050919050565b60006103ee826103d9565b91507fffffffffffffffffffffffffffffffffffffffffffffffffffffffffffffffff8214156104215761042061042c565b5b600182019050919050565b7f4e487b7100000000000000000000000000000000000000000000000000000000600052601160045260246000fd5b7f596f752061726520616c72656164792077686974656c69737465640000000000600082015250565b7f5265616368656420746865206d6178696d756d206361706163697479206f662060008201527f77686974656c6973746564206164647265737365730000000000000000000000602082015250565b6104dc8161039b565b81146104e757600080fd5b5056fea26469706673582212208579a593e7a56da911fde0da7f19888b5a6b61b2cb3c673f138a476ff523ce2864736f6c63430008040033",
  "linkReferences": {},
  "deployedLinkReferences": {}
}